:020000040800F2
:1000000080070020A1010008A9010008AB01000839
:10001000AD010008AF010008B101000800000000B8
:10002000000000000000000000000000B301000814
:10003000B501000800000000B7010008B901000880
:10004000BB010008BB010008BB010008BB010008A0
:10005000BB010008BB010008BB010008BB01000890
:10006000BB010008BB010008BB010008BB01000880
:10007000BB010008BB010008BB010008BB01000870
:10008000BB010008BB010008BB010008BB01000860
:10009000BB010008BB010008BB010008BB01000850
:1000A000BB010008BB010008BB010008BB01000840
:1000B000BB010008BB01000821240008BB010008A7
:1000C000BB010008BB010008BB010008BB01000820
:1000D000BB01000819260008BB010008BB0100088D
:1000E000BB010008BB010008BB01000800F002F8DA
:1000F00000F047F80AA090E8000C82448344AAF17B
:100100000107DA4501D100F03CF8AFF2090EBAE878
:100110000F0013F0010F18BFFB1A43F0010318473B
:100120002C3B00004C3B0000103A24BF78C878C13B
:10013000FAD8520724BF30C830C144BF04680C60ED
:10014000704700000023002400250026103A28BF35
:1001500078C1FBD8520728BF30C148BF0B60704739
:10016000662903F02685002070471FB500F0F0FADD
:1001700004000020002102F0ABFCE0601FBD10B5C0
:1001800010BD00F001FC1146FFF7EFFF02F0DCFBB1
:1001900000F01FFC03B4FFF7F2FF03BC00F062FCA9
:1001A0000948804709480047FEE7FEE7FEE7FEE70B
:1001B000FEE7FEE7FEE7FEE7FEE7FEE70448054947
:1001C000054A064B70470000C1230008ED000008F7
:1001D0008001002080070020800300208003002091
:1001E0000FB4044910B503AA029800F09FFA10BC9E
:1001F0005DF814FB280000202DE9F0474FF0000ABD
:1002000089460446C0F820A02046E16888470028B7
:1002100076D0252806D0D4E901219047206A401CD9
:100220002062F1E7E168204600258847C4F81CA059
:1002300006460027C4F818A02A2E09D0304602F03E
:1002400074FB38B304EB8708303EC8F8186019E037
:1002500059F8041B204604EB87029161E168884746
:10026000012F064618D1E069002820DA25F0200584
:100270001DE0D8F8180000EB800006EB4000303895
:10028000C8F818002046E1688847064602F04DFB92
:100290000028EED1012F0AD02E2E08D12046E16889
:1002A00088477F1C0646022F45F02005C4DBA06965
:1002B000002803DA404245F00105A061E80701D0BB
:1002C00025F01005B6B1A6F14100192802D8203654
:1002D00045F400654A463146204625604D46FFF705
:1002E0003FFF58B1012806D0ED1D25F0070000F1B1
:1002F000080989E704E005F1040985E730468AE743
:10030000206ABDE8F08770477047704770472DE955
:10031000FF4F0C461E464FF0FF378BB0D2E900016D
:10032000DDF860800A908A46C1F30A5505B93D465A
:10033000002108464FF00000BAF1000F00F4400021
:1003400005DA00EB80004FF4400101EA50004FEA6B
:100350009059B9F1010F00DDB9460A9850EA4A00F8
:100360000ED044F61050A5F2FF3545432F14B8F1D6
:10037000000F1ED07542291E1EDDC9F100021CE0CF
:10038000B8F1010F4FF0000001D0302103E0F2433B
:1003900005E02154401CB042FBDB30460022002126
:1003A00021540B99C1F80880C1E900200FB0BDE8C5
:1003B000F08FBD1B6D1CDEE74A4600DA694206A8D5
:1003C00000F068FA06AB93E8070003AB83E8070088
:1003D00050460A9900F04DFB8DE80700A0F500504B
:1003E0001F3800900398002D0ADD42F21F014A4693
:1003F0000844002303A90390684600F0B6FD09E015
:10040000A0F500504A461F38002303A90390684610
:1004100000F0C0FD8DE807000004000C03D04FF091
:10042000FF30410800E01046B8F1000F03D0002271
:10043000009215461EE0751E05D400F08DF930328D
:1004400062556D1EF9D5B3460122084302D0002241
:100450007F1C04E02078302801D100227F1E002A72
:10046000099784D01DE0112D07DA00F075F93032BC
:1004700062556D1C50EA0102F5D1084302D0009884
:10048000C8B10EE00021681E05E0235C625C635485
:100490002254401E491C8142F7DBAB46A81B401E7C
:1004A0000990002004F80B000B98099AC0F8088006
:1004B000C0E9002B7AE711264FF0000857E72DE935
:1004C000F04F88460446D21D22F0070191B0D1E9D1
:1004D0000001CDE90A0102F014FA02460B98C00FA0
:1004E00001D02D2007E02068810701D52B2002E0F4
:1004F000202101EAC000032A099001D0072A05DB68
:1005000003464146204600F085F90BE1207880063D
:1005100001D5E06900E00620B8F1650F814606D0FC
:10052000B8F1660F18D0B8F1670F70D131E0002034
:10053000B9F1110F009001DB112301E009F1010372
:100540000AAA01A90CA8FFF7E2FEDDE90C7000265B
:1005500009F10105834647E001204B4600904FF02A
:1005600000470AAA01A90CA8FFF7D1FEDDE90DB0EA
:100570000C995D46002610B909F101000D18B9EB80
:10058000050003D4C0F1FF3609F10105A5EB090010
:100590002BE0B9F1010F01DA4FF001090020B9F1A8
:1005A000110F0090484601DD112300E003460AAA1E
:1005B00001A90CA8FFF7ABFEDDE90C704D46002643
:1005C0008346207800070AD4AB4500DA5D4601A8CF
:1005D000012D04DD411911F8011C302907D04F45C8
:1005E00002DA17F1040F04DA012082460FE06D1ED3
:1005F000EEE7002F02DCED1B3E4403E0781CA8422E
:1006000000DD7D1CB81B00F1010A4FF00047207887
:10061000000703D4AA4501DB4FF0FF3A0021B7F1F0
:10062000004F0DF143088DF8431024D002202B23F6
:10063000002F01DA7F422D230A21021EA0F10100C2
:1006400000DC5FB197FBF1FC97FBF1F201FB1C7C36
:1006500017460CF1300C08F801CDEEE7A8F10100C7
:1006600003702188090501D5452100E06521A0F12D
:10067000010800F8011C09980FA9A1EB0807FF1D4C
:1006800000B10120411901EBEA70A1693844081A50
:10069000401EA0612078C00602D42046AFF300803F
:1006A000099828B1D4E901219047206A401C2062B2
:1006B0002078C00622D52046AFF300801EE0002E31
:1006C00004DBB34502DD01A8805D00E03020D4E901
:1006D00001219047206A401C2062761CAAF101008B
:1006E0005FEA000A0AD100F033F8C0680168405C94
:1006F000D4E901219047206A401C2062281EA5F100
:100700000105DCDC07E0D4E9012118F8010B904772
:10071000206A401C2062381EA7F10107F3DC204646
:10072000AFF30080032011B041E60000074B70B525
:100730000D467B4400F05BF80446284600F01CF9A7
:1007400010B14FF0FF3070BD204670BD0322000095
:10075000004870474001002030B5B0F10A024FEA6E
:10076000900E71F100034EEA817EB0EB0E0061EB5A
:1007700091014FEA101E4EEA017E10EB0E0041EB94
:1007800011114FEA102E4EEA016E10EB0E0041EBF4
:1007900011214FEA104E4EEA014E10EB0E0041EBD4
:1007A0001141401841F100014FEAD00040EA417088
:1007B0004FEAD10110EB80054FEA810444EA9074BE
:1007C00044EB01046D1944EB0404521BA3414FF0A8
:1007D000000348BF0A3200D530BD401C41F1000182
:1007E00030BD000001694A1C02610878704700B5FD
:1007F0008FB0CDE901310021059105497944CDE95A
:10080000031011466846FFF7F7FC0FB000BD00006B
:10081000E5FFFFFF2DE9F0411F460446032601686E
:10082000072A01F4006004DB08B116A505E016A54F
:1008300003E008B115A500E015A521F01000206027
:10084000A069C01EA0610FB1401EA0612046AFF399
:1008500000804FB1D4E9012138469047206A401CFE
:100860002062C01C206206E0206AFAE7D4E9012178
:1008700015F8010B9047761EF8D22046AFF30080A2
:10088000BDE8F0814E414E006E616E00494E46005B
:10089000696E66002DE9F047814616468AB03548F4
:1008A00078440DC88DE80D0032487844801C03ACB4
:1008B0000DC884E80D0041F69B300844372190FBB9
:1008C000F1F290FBF1F5A5F1800501FB12041B3C50
:1008D00002D56442012000E00020DFF898A08046A5
:1008E0000027FA44AAF1BE0A0EE0E0070AD0324619
:1008F000684607EB470101230AEB810100F04AFB40
:100900008DE8070064107F1C002CEED1194F7F4446
:10091000AE3F19E0E80715D007EB04100DF1180AF7
:1009200090E80E008AE80E00C068F04201D19819E4
:1009300008903246012306A903A800F02BFB03AB65
:1009400083E807006D10641C002DE3D14FF0010314
:1009500032466946B8F1000F03A802D000F005FB4B
:1009600001E000F017FBC9E90001C9F808200AB04E
:10097000BDE8F08790330000007B00F080007047F6
:1009800000487047200100207546FFF7F9FFAE468A
:1009900005006946534620F00700854618B020B58B
:1009A000FFF70CFCBDE820404FF000064FF00007B9
:1009B0004FF000084FF0000B21F00701AC46ACE807
:1009C000C009ACE8C009ACE8C009ACE8C0098D4674
:1009D000704710B50446AFF300802046BDE81040D4
:1009E000FFF7D8BB4FF0013C50F8042B51F8043B03
:1009F0009A4221D1A2EB0C03934313EACC1317D1F3
:100A000050F8042B51F8043B9A4215D1A2EB0C0389
:100A1000934313EACC130BD150F8042B51F8043B49
:100A20009A4209D1A2EB0C03934313EACC13DBD017
:100A30004FF00000704700BFD01A01BAB1FA81F13F
:100A400001F0180122FA01F0CB40C1F12001DBB224
:100A5000C0B2C01A2CFA01F3D11A914311EAC311A2
:100A6000E6D1704701491820ABBEFEE72600020020
:100A700070475FEA400C08BF91F0000F4FEA8C23EB
:100A80004FEAC12243EA51514FEA1C5018BF00F50A
:100A9000F0404FEA300018BF41F000415FEA6C5C63
:100AA00000F02980BCF1FF3F08BF40F08040704754
:100AB000130C06BF12044FF0100C4FF0000C130E75
:100AC00004BF12020CF1080C130F04BF12010CF149
:100AD000040C930F04BF92000CF1020CD30F04BF5F
:100AE00052000CF1010C11464FF00002A0F11F0062
:100AF000A0EB0C00704711F0004F08BF704731F0B9
:100B000000413FF4D5AF0B0C06BF09044FF0100CA9
:100B10004FF0000C0B0E04BF09020CF1080C0B0F78
:100B200004BF09010CF1040C8B0F04BF89000CF108
:100B3000020CCB0F04BF49000CF1010CCCF12003D7
:100B4000A0EB0C0022FA03F302FA0CF241EA0301D3
:100B500000F10100704720F07F4C80EA030023F091
:100B60007F47ACEB070303F57C5300F0004003F133
:100B7000FF032DE980494FEA154B09B44FEA1443AE
:100B800025EA0B4E24EA03480FF2042606EB13274E
:100B900049083E785FEA320203FB0667C7F50007A3
:100BA00007FB06F64FEA54374FEAD64606F102062F
:100BB00007FB066CCCF1005C4FEA1C472CEA074CA3
:100BC00007FB06F40CFB06F504EB15464FEA9616F8
:100BD00034BF00204FF000404FEAD13706FB07FC3E
:100BE0004FEA1C4C0CFB0BF7D21B03FB0CF761EB21
:100BF00007010CFB0EF7B0EB074072EB17420CFB42
:100C000008F734BFA2EB0742B2EB074261EB174192
:100C10004FEA0C444FEA910706FB07FC4FEA1C4CD5
:100C20000CFB0BF7B0EBC74072EB573203FB0CF732
:100C300034BFA2EBC742B2EBC74261EB57310CFBAA
:100C40000EF7B0EBC70072EB57720CFB08F734BF1E
:100C5000A2EBC702B2EBC70261EB5771039F4FEAE9
:100C6000816141EA921104EBCC044FEAD1374FEA9B
:100C7000826206FB07FC42EA90124FEA80604FEA6C
:100C80001C4C0CFB0BF7D21B03FB0CF761EB0701B1
:100C90000CFB0EF7B0EB074072EB17420CFB08F7AA
:100CA00034BFA2EB0742B2EB074261EB17414FEAB8
:100CB0008C554FEA910704EB9C2406FB07FC4FEA96
:100CC0001C4C0CFB0BF7B0EBC74072EB573203FB2D
:100CD0000CF734BFA2EBC742B2EBC74261EB57310E
:100CE0000CFB0EF7B0EBC70072EB57720CFB08F76A
:100CF00034BFA2EBC702B2EBC70261EB577115EB31
:100D00004C254FEA816141EA92114FEA82624FEA33
:100D1000D13742EA901206FB07FC44F100044FEA87
:100D200080604FEA1C4C0CFB0BF7D21B03FB0CF74B
:100D300061EB07010CFB0EF7B0EB074072EB1742BB
:100D40000CFB08F734BFA2EB0742B2EB074261EBA2
:100D5000174115EB1C154FEA813141EA92414FEAE8
:100D6000823242EA90424FEA80304FEA0C7644F1F8
:100D7000000448EA03434EEA0B484FF0000EB2EB82
:100D8000080C71EB030724BF624639464EEB0E0E8A
:100D90004FF0000B0018524149414BEB0B0BB2EBEB
:100DA000080C71EB03077BF1000B24BF6246394648
:100DB0004EEB0E0E4FF0000B0018524149414BEB29
:100DC0000B0BB2EB080C71EB03077BF1000B24BF9C
:100DD000624639464EEB0E0E51EA020718BF46F046
:100DE000010616EB0E7655F1000254F1000103D511
:100DF000BDE88901BDE80088BDE88901BDE800487B
:100E0000B619524141EB0101A3F101037047808003
:100E10007F7E7D7C7B7A7978777676757473727154
:100E200071706F6E6E6D6C6C6B6A6A69686867660C
:100E300066656464636362616160605F5F5E5E5D9E
:100E40005D5C5C5B5B5A5A59595858575756565512
:100E500055555454535352525251515050504F4F74
:100E60004F4E4E4D4D4D4C4C4C4B4B4B4A4A4A49C4
:100E70004949484848474747474646464545454407
:100E80004444444343434342424242414141002B94
:100E90009C4630D477002BD01CB54FEA370703B4FB
:100EA0004FF010004FF01001BAF1000F06D0BCF166
:100EB000000FDCBF40F0080040F008014FF00000D8
:100EC0000FBCBDE810400BF1010BBBF1010F08BFD7
:100ED0005FEA170722BF12F1010211F101014FF081
:100EE000004143F1000300F0004043EA0000704776
:100EF000F9D35708D0E746EA064613F1400F4FEA08
:100F000016461FDD13F1200FDFBF16430A460021EE
:100F100020335B42BED0C3F1200746EA064602FA00
:100F200007F74FEA164646EA0706C3F1200722FAFA
:100F300003F201FA07F721FA03F14FF0000342EA46
:100F40000702A7E746EA020646EA06464FEA1646C1
:100F500046EA0106BCBF46EA0646360C4FF00003DF
:100F60004FF000024FF0000194E72DE9804C9A46C3
:100F7000934670B491E8380007C831EA400C48BF86
:100F800034EA430C03D5FFF7E6FDFFF780FFF0BC22
:100F9000BDE8008C2DE9804C9A46934670B491E8E8
:100FA000380007C810F0804F08BF13F0804F03D1FE
:100FB00000F005F8FFF76BFFF0BCBDE8008C20F0F7
:100FC0007F4780EA030023F07F4C07EB0C03A3F577
:100FD0007C5300F00040A3F1FE0392F0000F00F0FC
:100FE000B38095F0000F00F077802DE901494FEABA
:100FF00011404FEA144621EA004800FB06FC24EAAF
:10100000064708FB06F607FB08F800FB07F718EB96
:1010100006484CEB164C4FEA124B18EB07484FEAC8
:1010200015464CEB174022EA0B4E0BFB06FC25EA5B
:1010300006470EFB06F607FB0EFE0BFB07F71EEB43
:10104000064E4CEB164C4FF000061EEB074E4CEBD9
:10105000174B18EB0B0840F1000018EB0E0B58EB88
:10106000000840F100008F1A4FF000013CBFC94357
:10107000661B14BFB5EB040C00213CBFC943F61B33
:101080004FEA17444EEA8E0E27EA04454FEA1C4702
:1010900004FB07622CEA074C05FB07F70CFB05F67F
:1010A00004FB0CFC16EB074642EB174216EB0C4612
:1010B00042EB1C421BEB060658EB0202414146EA9A
:1010C0009E0601D5BDE80189B619524141EB0101E7
:1010D000A3F10103BDE801894FEA14454FEA114726
:1010E00024EA054621EA074C05FB07F406FB07F74F
:1010F0000CFB06F105FB0CFC11EB074144EB17441C
:101100004FEA124711EB0C4144EB1C4422EA074C16
:1011100005FB07F206FB07F70CFB06F605FB0CFCCC
:1011200016EB074642EB174216EB0C4642EB1C450A
:101130006A1854F1000148BF7047B619524141EB9B
:101140000101A3F10103704795F0000F37D04FEA7A
:1011500011424FEA144721EA024624EA074C02FBF7
:1011600007F106FB07F70CFB06F402FB0CFC14EB83
:10117000074441EB17414FEA154714EB0C4441EB90
:101180001C4125EA074C02FB07F506FB07F70CFBA1
:1011900006F602FB0CFC16EB074645EB174516EB73
:1011A0000C4645EB1C42121951F1000148BF704733
:1011B000B619524141EB0101A3F1010370474FEA17
:1011C00014454FEA114724EA054621EA074C05FB7E
:1011D00007F106FB07F70CFB06F24FF0000605FBD4
:1011E0000CFC12EB074241EB174112EB0C4251EBA6
:1011F0001C4148BF7047921841EB0101A3F1010364
:10120000704700000448007808B9012000E0002081
:1012100001490870704700000800002060B94A8842
:10122000B2F5FA6F0ADC4A88521C4A804A88322A90
:1012300004D101220A7001E000224A8070470000B8
:1012400010B50121104800F0B4F904460F49FFF72A
:10125000E5FF02210C4800F0ACF904460C49FFF709
:10126000DDFF0B480078012804D1FFF7CBFF0020F9
:10127000074908700548007820B100F025FA0020E1
:101280000249087010BD0000000801400000002065
:101290000400002001200149087070470800002068
:1012A00000200149087070470800002030B5024650
:1012B0000B464FF6FF700021002400BF12E0555C82
:1012C000684008240AE000F0010525B140104AF208
:1012D0000105684000E04010651EACB2002CF2D160
:1012E0004D1CA9B29942EADB30BD08B502468DF823
:1012F00000208DF80110BDF8000008BD014601482E
:10130000016070476800002010B503461046541C69
:10131000E2B2185C08711046541CE2B21C5C4C71BD
:101320001046541CE2B21C5C8C711046541CE2B294
:101330001C5CCC71104610BD00200149087070473C
:1013400074000020014800787047000074000020FD
:1013500070B505460C464B48007805280BD2DFE8EF
:1013600000F0031A29385800AA2D05D0002046495C
:1013700008704449087082E0434800782554424888
:101380000078401C4049087008460078012801D1C7
:101390003C49087073E03C48007825543A4800788E
:1013A000401C3949087008460078022801D13549A7
:1013B000087064E034480078255433480078401CB5
:1013C0003149087008460078032801D12D4908707A
:1013D00055E02D48007825542B480078401C2A49B8
:1013E000087008460078042812D1E078001D2749CB
:1013F0000880084600880A2803DC04202149087078
:1014000006E0002020490870214908701D49087035
:1014100035E01D48007825541B480078401C1A49C7
:1014200008700846007819490988884226D117486B
:101430000078801EC1B22046FFF738FF15490880AA
:10144000114A1278521EA15C0F4A1278921EA05CBB
:10145000FFF74BFF104908800E4800880988884232
:1014600004D10A4800780A49087002E000200849BF
:1014700008700020044908700249087000BF00BFCE
:1014800070BD00007000002071000020720000207C
:101490007400002076000020780000202DE9F04143
:1014A000024600250026002000230024002791F892
:1014B00003C00CF00F0591F803C00CF0100CBCF148
:1014C000000F03D091F802C04CEA050591F800C066
:1014D000BCF1000F31D0146800202BE04FF0010C5C
:1014E0000CFA00F3B1F800C00CEA03069E4220D1CA
:1014F00083004FF00F0C0CFA03F7BC4305FA03FC12
:101500004CEA040491F803C0BCF1280F06D14FF057
:10151000010C0CFA00FCC2F814C00AE091F803C0F8
:10152000BCF1480F05D14FF0010C0CFA00FCC2F8D9
:1015300010C0401C0828D1D31460B1F800C0BCF121
:10154000FF0F34DD546800202EE000F1080C4FF04E
:10155000010808FA0CF3B1F800C00CEA03069E4239
:1015600021D183004FF00F0C0CFA03F7BC4305FAAE
:1015700003FC4CEA040491F803C0BCF1280F05D128
:1015800000F1080C08FA0CF8C2F8148091F803C0B6
:10159000BCF1480F07D100F1080C4FF0010808FA20
:1015A0000CF8C2F81080401C0828CED35460BDE867
:1015B000F0810246002093680B400BB1012000E04F
:1015C00000207047416170470161704708B50121F3
:1015D000042000F0F9FD0121082000F0F5FD0121B3
:1015E000102000F0F1FD4FF40070ADF80000042071
:1015F0008DF8030003208DF8020069462F48FFF79D
:101600004DFF4FF48070ADF8000010208DF80300FE
:1016100003208DF8020069462848FFF73FFF4FF48A
:1016200080712648FFF7CEFF18208DF803004FF495
:101630000070ADF8000003208DF8020069462048D4
:10164000FFF72CFF04208DF803000002ADF8000026
:1016500003208DF8020069461948FFF71FFF032099
:10166000ADF8000048208DF8030003208DF802003B
:1016700069461348FFF712FF4FF44060ADF80000D1
:101680001C208DF8030003208DF8020069460B48EA
:10169000FFF704FF4FF40050ADF8000010208DF864
:1016A000030003208DF8020069460448FFF7F6FEA8
:1016B0004FF400510348FFF785FF08BD000C0140BF
:1016C000000801400010014002480068024908601B
:1016D00070470000540000205800002070B50C48EE
:1016E000006801F0DFFE04460A4A0B4B01F0AEFD34
:1016F0000BD20748006801F0D5FE0446054A074BA7
:1017000001F06AFC01D2002070BD01480068FBE7CF
:101710005C00002092CB7F48BF7D4DBFBF7D4D3F19
:1017200010B5054C01E000F009F8201EA4F10104F9
:10173000F9D1FFF7C9FF10BD60AE0A0070B500F027
:101740004DF80A4908600846006868B10968080A47
:1017500002F074F8054601F049F9044602F04EF82B
:101760000349086000F006F870BD00004800002042
:10177000500000202DE9F0471148006802F05EF8A3
:10178000824601F08FFE064600220E4B01F09CFAC5
:1017900004464FF04D320C4B01F09AFD804601F0AB
:1017A000ADF90A4908600A48007838B90948016863
:1017B0000648006802F088F907490860BDE8F0872C
:1017C0005000002000E897404DCD364054000020E6
:1017D00008000020580000205C00002010B54FF4E5
:1017E00000711E48FFF7E5FEA8BB00201C490860F9
:1017F00001241BE04FF480711848FFF7E5FE1848FC
:1018000000684000164908604FF480711348FFF7E4
:10181000D9FE4FF400711148FFF7CBFE20B11048FC
:101820000068401C0E490860601CC4B2182CE1DD41
:101830004FF480710948FFF7C7FE0948006880F43B
:101840000000074908604FF480710448FFF7BAFEB2
:101850000348006810BDFFE70020FBE7000C0140D3
:101860004400002070B5024600240025002300201B
:10187000958A138B1B0445EA030626F07F4404EA8D
:1018800001068E4201D1012000E0002070BD21B18F
:10189000028842F00102028004E002884FF6FE73E3
:1018A0001A400280704721B1028842F4807202809F
:1018B00004E002884FF6FF631A400280704721B1AE
:1018C000028842F40072028004E002884FF6FF535F
:1018D0001A400280704700002DE9F04385B00446AD
:1018E0000D460026B1460427DFF8CC80A6884FF6C7
:1018F000C0700640684600F077FCDDF808802F488D
:10190000B8FBF0F01FFA80F946EA0906A6802088A5
:101910004FF6FE7108402080002629492868884239
:101920000CD828684000B8FBF0F087B2042F00DA2A
:1019300004273E4309F10100208427E0E8884BF6A4
:10194000FF71884206D1286800EB4000B8FBF0F038
:1019500087B209E0286800EBC00101EB0010B8FB7A
:10196000F0F087B247F48047C7F30B0008B947F09F
:10197000010747F4004006434FF4967009FB00F05E
:101980004FF47A7190FBF1F0401C2084A6832088EC
:1019900040F00100208026884FF6F5300640A888E8
:1019A0006989084306432680A8892989084320813C
:1019B00005B0BDE8F083000000127A0040420F003D
:1019C000A086010012B141F0010102E04FF6FE7362
:1019D0001940018270470182704700001FB5012144
:1019E000880500F0E1FB0020ADF804004BF6FF7025
:1019F000ADF806000020ADF80800ADF80A004FF47D
:101A00008040ADF80C000548009069460448FFF797
:101A100063FF01210248FFF73AFF1FBDA0860100C6
:101A20000058004010B5012000F0B8F9052000F082
:101A3000D7FD10BD70B505460024012D0BD18020C7
:101A400000F0ACF900BF04E0202000F0CCF9601CED
:101A5000C4B2102CF8DB022D0BD1C02000F09EF98F
:101A6000002404E0202000F0BEF9601CC4B2102C59
:101A7000F8DB70BDFEB5064600242B49304601F068
:101A800025FF074601F09EFE05460021304601F085
:101A9000E9FE00D26D420A2095FBF0F100FB1150E7
:101AA000052804DB0A2095FBF0F0451C02E00A2023
:101AB00095FBF0F51DE00A2095FBF0F100FB1150BD
:101AC0003030C0B20DF80400032C0DD12E200DF8DB
:101AD0000400601CC4B20A2095FBF0F100FB115019
:101AE0003030C0B20DF80400601CC4B20A2095FB6F
:101AF000F0F5002DDFD10021304601F0B3FE04D215
:101B00002D200DF80400601CC4B200200DF8040064
:101B100003E01DF8040000F066F9201EA4F10101A5
:101B2000CCB2F6D1FEBD000000401C4670B50446A4
:101B30000D46012C04D104F17F002844C6B204E014
:101B400005F14000C0B240F08006304600F026F9B2
:101B500070BDFEB5064600243546002E00DA6D4203
:101B60000DE00A2095FBF0F100FB11503030C0B2BF
:101B70000DF80400601CC4B20A2095FBF0F5002D9E
:101B8000EFD1002E04DA2D200DF80400601CC4B241
:101B900000200DF8040003E01DF8040000F023F914
:101BA000201EA4F10101CCB2F6D1FEBD10B5FFF7A5
:101BB00039FF00210120FFF7B9FF0AA000F038F932
:101BC0004FF4FA7000F00CFD00210220FFF7AEFF89
:101BD00008A000F02DF94FF47A7000F001FDFFF736
:101BE00021FF10BD496E697469616C697A696E671D
:101BF0002E2E2E0043616C6962726174696E672ECD
:101C00002E2E00002DE9F047044644480168204686
:101C100001F0A4FD17D0414804600220FFF70AFF3D
:101C200000210120FFF782FF3DA000F001F9002113
:101C3000204601F093FD07D107210220FFF776FF30
:101C4000302000F0D0F867E04FF07E51204601F0E0
:101C500009FF0ED804210220FFF768FF2046FFF796
:101C600009FF0A210220FFF761FF2FA000F0E0F832
:101C700052E04FF07E51204601F0F4FD1AD20021CF
:101C8000204601F0EFFE15D205210220FFF74EFF9E
:101C90002649204601F01AFE064601F093FD05464E
:101CA000FFF757FF09210220FFF740FF20A000F0B7
:101CB000BFF831E01F49204601F0D4FE1ED20021BA
:101CC000204601F0CFFD19D204210220FFF72EFF9C
:101CD000204601F0E7FB07460022174B01F0B8F958
:101CE000054601F049F98146FFF733FF092102203B
:101CF000FFF71CFF0EA000F09BF80DE0032102206F
:101D0000FFF714FF2046FFF7B5FE0A210220FFF778
:101D10000DFF05A000F08CF8BDE8F0876000002002
:101D20005745494748543A006B67000000007A4421
:101D300067000000000080BF00408F4010B50446DF
:101D400001211348FFF7AFFD00BF12491048FFF70C
:101D500089FD0028F9D000224E210D48FFF732FE00
:101D600000BF0D490A48FFF77DFD0028F9D0214644
:101D70000748FFF730FE00BF0749891C0448FFF7FA
:101D800071FD0028F8D001210148FFF798FD10BD32
:101D9000005800400100030082000700F8B5044627
:101DA00000200090002504F0F006F02000EA04175F
:101DB00046F00C008DF8000046F008008DF8010098
:101DC00047F00C008DF8020047F008008DF8030082
:101DD00000BF05E01DF80500FFF7B0FF681CC5B2A5
:101DE000042DF7DBF8BDF8B504460020009000256F
:101DF00004F0F006F02000EA041746F00D008DF81C
:101E0000000046F009008DF8010047F00D008DF844
:101E1000020047F009008DF8030000BF05E01DF83F
:101E20000500FFF78BFF681CC5B2042DF7DBF8BD7A
:101E300010B5044603E014F8010BFFF7D4FF207837
:101E40000028F8D110BD00001CB5FFF7BFFB4FF014
:101E50007C524FF07E514FF0804000F0A3FA0120F9
:101E600000210B464722CDE9001040F2E731002067
:101E700000F078FBFFF754FC4FF4165000F006FC1E
:101E800006A0FEF7ADF9FFF7A9FD08A0FEF7A8F937
:101E90000AA0FEF7A5F9FFF789FE1CBD75617274F3
:101EA00020737563636573730A0000004932432031
:101EB000737563636573730A000000004C4344202C
:101EC000737563636573730A0000000070B50446A0
:101ED0006078012806D0032812D005281CD00728D6
:101EE00032D127E0FFF7F0FBFFF744FCFFF7F6FBEA
:101EF00005462B4611220221204600F05DF823E022
:101F0000FFF7ECFB05462B4611220421204600F08A
:101F100053F8FFF7BFF917E0FFF7C2F9FFF72AFC04
:101F2000FFF7DCFB05462B4611220621204600F078
:101F300043F809E0FFF7D2FB05462B4611220821A2
:101F4000204600F039F800BF00BF70BD2DE9F04118
:101F500080460D4698F80000AA2802D00020BDE86F
:101F6000F081464698F8030002280DD1042130463E
:101F7000FFF79CF90746002403E0305D2855601CFC
:101F8000C4B2042CF9DB0CE008213046FFF78EF9CF
:101F90000746002403E0305D2855601CC4B2082CBD
:101FA000F9DB2046611CCCB22F543A0A2046611C52
:101FB000CCB22A542046D2E72DE9F04704460E461B
:101FC00017469846AA2020706670A7706078092886
:101FD0001ED2DFE800F01D05080B0E1114171A00C1
:101FE0000220E07014E00620E07011E00220E070B2
:101FF0000EE00620E0700BE00220E07008E0062012
:10200000E07005E00220E07002E00620E07000BF12
:1020100000BFE07806280ED14046FFF76FF98146F1
:10202000002505E019F80510201D4155681CC5B2B2
:10203000042DF7DB00BFBDE8F08770B505460E46FE
:102040002878AA2801D0002070BD0024285D3070B7
:10205000641C285D7070641C285DB070641C285D71
:10206000F070641C7078022806D004280BD0062873
:1020700010D008281CD114E0224631462846FFF72C
:1020800043F9044614E0224631462846FFF73CF95E
:1020900004460DE0224631462846FFF735F904464E
:1020A00006E0224631462846FFF72EF9044600BFD7
:1020B00000BF621CA95C285DFFF717F93081A01CE6
:1020C000C4B22046C0E7000010B508490848FFF731
:1020D000B4FF0648FFF7FAFE06490448FFF736FF4B
:1020E00004462146034800F017FB10BD0A010020FA
:1020F000000100201401002070B5044611220821BF
:1021000006482368FFF758FF05490448FFF71EFFFC
:1021100005462946024800F0FFFA70BD0A0100207A
:102120001401002070B5002100230F22C47804B3ED
:10213000154C246804F4E064C4F5E064210AC1F19C
:102140000403CA40447804FA03F18478144021431C
:1021500009010E4C0678A155047804F01F050124EE
:10216000AC4005786D11AD0005F1E025C5F80041E2
:1021700009E0047804F01F050124AC40044D067802
:10218000761145F8264070BD0CED00E000E400E05B
:1021900080E100E002490143024A116070470000FB
:1021A0000000FA050CED00E029B1064AD2690243AD
:1021B000044BDA6104E0034AD2698243014BDA61DD
:1021C000704700000010024029B1064A926902439C
:1021D000044B9A6104E0034A92698243014B9A617D
:1021E000704700000010024030B50021002200249A
:1021F00000232D4D6D6805F00C0121B1042905D097
:10220000082923D105E0294D056022E0274D05600E
:102210001FE0254D6D6805F47012234D6D6805F4BF
:102220008034022505EB92421CB9214D55430560CF
:102230000BE01D4D6D6805F400351DB11C4D554377
:10224000056002E0194D5543056002E0174D056039
:1022500000BF00BF144D6D6805F0F0010909154D70
:102260006B5C0568DD4045600F4D6D6805F4E0610D
:10227000090A104D6B5C4568DD4085600A4D6D684C
:1022800005F46051C90A0B4D6B5C4568DD40C560C3
:10229000054D6D6805F44041890B074D6B5CC568C1
:1022A000B5FBF3F5056130BD0010024000127A0065
:1022B00000093D007A0000208A00002010B500F0DF
:1022C00001F810BD0CB50020019000903348006863
:1022D00040F480303149086000BF3048006800F4A5
:1022E000003000900198401C0190009818B90198A6
:1022F000B0F5A06FF1D12948006800F4003010B1AA
:102300000120009001E0002000900098012843D1B6
:102310002348006840F01000214908600846006822
:1023200020F0070008600846006840F002000860DE
:102330001A4840681949486008464068486008469D
:10234000406840F4806048600846406820F47C1093
:1023500048600846406840F4E81048600846006855
:1023600040F08070086000BF0C48006800F000700A
:102370000028F9D00948406820F003000749486068
:102380000846406840F00200486000BF03484068CB
:1023900000F00C000828F9D10CBD0000001002402C
:1023A00000200240034B1860034B1960034B1A6076
:1023B000704700002C000020300000203400002076
:1023C00010B51348006840F0010011490860084644
:1023D0004068104908400E494860084600680E49A8
:1023E00008400B4908600846006820F48020086017
:1023F0000846406820F4FE0048604FF41F008860E3
:10240000FFF75CFF4FF000600449086010BD00005A
:10241000001002400000FFF8FFFFF6FE08ED00E0AC
:1024200010B501210C4800F031F880B10B4800686C
:10243000401C0A4908600A480068401C08490860B6
:1024400008480068401C07490860FEF7F9FE0121B2
:10245000014800F00CF810BD000800400C000020FE
:102460001000002014000020CA4302827047CA43B3
:102470000282704721B1028842F00102028004E02A
:1024800002884FF6FE731A400280704730B502464C
:10249000002000230024158A05EA0103958905EA36
:1024A000010413B10CB1012000E0002030BD1AB1CD
:1024B00083890B43838102E083898B438381704747
:1024C000002202881D4B98420ED01D4B98420BD023
:1024D000B0F1804F08D01B4B984205D01A4B984260
:1024E00002D01A4B984204D14FF68F731A404B8892
:1024F0001A43174B984207D0164B984204D04FF618
:10250000FF431A40CB881A4302808B8883850B884F
:1025100003850A4B98420BD0094B984208D00E4BCA
:10252000984205D00D4B984202D00D4B984201D1F4
:102530000B7A03860123838270470000002C014040
:10254000003401400004004000080040000C00403E
:1025500000100040001400400040014000440140D1
:10256000004801402DE9FF4704460D4617461E4628
:10257000DDE90C8901210420FFF716FEADF80640C5
:10258000ADF80850ADF80470ADF80A608DF80C8015
:1025900001A91248FFF794FF49461048FFF76AFF68
:1025A000012211460D48FFF782FF01210B48FFF77A
:1025B0005BFF4FF4A060FFF7EDFD1E208DF80000DB
:1025C00000208DF801008DF8020001208DF8030035
:1025D0006846FFF7A7FDBDE8FF8700000008004040
:1025E00002460C4B18688118884209D200BF094B7B
:1025F0001B6883420DD3074B1B688B42F7D308E05F
:1026000000BF044B1B688342FBD2024B1B688B420A
:10261000F7D370470C00002010B540F22551154843
:1026200000F0ABF828B3134800F062F912490870C3
:10263000084600780A280CD10120104908700021B2
:102640000F480078401E0F4A115400200C490870B2
:102650000AE0094800780B49094A1278885408486A
:102660000078401C06490870074903480078FEF7C7
:102670006FFE10BD0038014025000020260000201C
:102680002700002090000020000100201FB5044614
:1026900001218803FFF798FD00940C20ADF80A0093
:1026A0000020ADF80800ADF80600ADF80400ADF864
:1026B0000C0069460F4800F0AFF801210D4800F00A
:1026C00043F8012240F225510A4800F080F8252005
:1026D00000280DDB00BF00BF00F01F020121914068
:1026E0004209920002F1E022C2F8001100BF00BFCF
:1026F00000BF1FBD0038014010B504462146054803
:1027000000F0FBF800BF8021024800F029F8002803
:10271000F9D010BD0038014070B505460E460024C2
:102720000CE0295D074800F0E8F800BF802105486B
:1027300000F016F80028F9D0601CC4B2B442F0DBF7
:1027400070BD00000038014021B1828942F400527E
:10275000828104E082894DF6FF731A4082817047BE
:1027600002460020B1F5007F00D100BF13880B4066
:102770000BB1012000E00020704770B50246002434
:1027800000230025002040F66A16B14200D100BFA8
:10279000C1F3421501F01F03012606FA03F3012DD0
:1027A00002D19689334006E0022D02D1168A3340C9
:1027B00001E0968A33400C12012606FA04F41688CA
:1027C000344013B10CB1012000E0002070BDF0B521
:1027D0000346002400260025002040F66A17B9426F
:1027E00000D100BF1846C1F3421401F01F060127B3
:1027F00007FA06F5012C01D10C3004E0022C01D1BE
:10280000103000E014301AB107682F43076002E06F
:102810000768AF430760F0BD2DE9F04786B0054675
:102820000E460024A24600BFA1460027B08900B191
:1028300000BF2F462C8A4CF6FF700440F0880443FA
:102840002C82AC894EF6F3100440B08831890843DD
:10285000718908430443AC81AC8A4FF6FF400440C1
:10286000B0890443AC8201A8FFF7BEFC1F48874231
:1028700002D1DDF810A001E0DDF80CA0A88900F479
:10288000004040B10AEBCA0000EB0A103168490071
:10289000B0FBF1F807E00AEBCA0000EB0A10316860
:1028A0008900B0FBF1F86420B8FBF0F004012009C6
:1028B000642101FB1089A88900F4004040B1322056
:1028C00000EBC900B0FBF1F000F00700044308E0A2
:1028D000322000EB09106421B0FBF1F000F00F0092
:1028E00004432C8106B0BDE8F087000000380140A9
:1028F00001468888C0F308007047C1F3080282804F
:102900007047490050EAC12018BF04204A0D18BF83
:1029100040F0010040F2FF72B2EB515F08BF40F09F
:102920000200012808BF0520704730380A2801D26C
:10293000012070470020704770B504460D46A0B2D4
:10294000FFF7DAFE204670BDFFF77EFA1FA0FDF705
:1029500047FC39E0FEF7F6FC30B11CA0FDF740FC67
:10296000FFF7B2FBFEF7E8FCFEF7E8FEFEF7B6FE67
:10297000184908600846006800F094FD04462246A5
:102980000B4615A0FDF72CFC15480068962806D3C9
:1029900010480068FFF736F9002011490860114817
:1029A0000068B0F5FA7F0FD34FF400510E48FEF7E0
:1029B00009FE0848FFF7A0FB4FF400510A48FEF754
:1029C00003FE002007490860C4E700007965730A28
:1029D0000000000064000020252E33660A0000007D
:1029E0001000002014000020001001402DE9F14FDC
:1029F00084B0304801683048006800F07FFD04462C
:102A000021462D48006800F0E7FD2C4908602C485D
:102A10000168049801F058F80546284801682846DE
:102A200000F054FF044626480168204600F066FD89
:102A3000244908602448006800F034FD04460D462F
:102A4000204801681E48006801F03EF8804600F00A
:102A500029FD21F00041064622462B4600F0F8FAF7
:102A6000CDE902011448006800F01CFD04460D4643
:102A70001248006800F016FD06460022134B00F0D5
:102A80001BFC804622462B4600F0E2FACDE900010D
:102A9000DDE9022300F064F8824600F02FF80649D1
:102AA000086008480068064908600648006805B0E4
:102AB000BDE8F08F2C0000203000002040000020F6
:102AC0003C00002038000020340000200000F03FCF
:102AD00010B500290AD00878002807D005487844A6
:102AE000FDF780FF002801D0002010BD0248784487
:102AF00010BD00008E1100008611000021F0004280
:102B0000A2F16052B2F5801F01F0004328BFD2F15C
:102B10007F6C0BD95FEA001C43EAC20242EB5070A3
:102B200018BF704728BF20F001007047B2F5801F22
:102B3000BCBF184670474FEA410C1CF5001F02D27B
:102B4000084600F08ABF70B500F02CFB0000008939
:102B5000FFF7F6BF4FF00040A0F58000704700007F
:102B600010B591EA030F48BF83F0004300F1B8832A
:102B7000841A71EB030C05D2121943EB0C03001BF2
:102B800061EB0C01DFF824E14FEA1154A4EB135C74
:102B90001EEA430F18BF9EEA445F73D023EA0E0378
:102BA000DCF1200E21EA045143F4801332D322FADF
:102BB0000CFE10EB0E0023FA0CFE41EB0E01CCF1E3
:102BC000200E03FA0EFE10EB0E0051F10001B1F5DC
:102BD000801FCCF1200E32D201EB045112FA0EF21A
:102BE000BDE8104058BF7047401C38BF5FEA420242
:102BF00018BF7047002814BF20F0010041F1000108
:102C00004FEA410313F5001F38BF7047A1F1C041DF
:102C100000F016BB012A43EB0302ACF1200CDCF1FF
:102C20001F0E32BF4FF0000E23FA0CF310EB03001F
:102C300041EB0451B4EB115FD0D0A1EB045101F58D
:102C4000801149085FEA300001EB04510ED350F1C6
:102C5000000038BF12FA0EFE08D1BDE81040C9E7E7
:102C6000401C38BF5FEA4202CAD1C3E7BDE810404A
:102C70004FEA410313F5001F38BF7047A1F1C0416F
:102C800000F0DEBA9EEA445F08D011EA5E0FBDE8AC
:102C9000104004BF01F0004100207047BDE8104023
:102CA00070B500F07FFA00BF64FBBE3E0000E0FF9D
:102CB000491058BFC1F140415B1058BFC3F14043B8
:102CC0008B42EFF3008070472DE9C04130B4DFF84C
:102CD000A0C23CEA111418BF3CEA131400F0EC80C7
:102CE00081EA03051CEA111444EAD57418BF1CEAF2
:102CF000131500F0C780A4EB05044FF0004545EA2A
:102D0000C12145EAC32341EA505143EA525304F139
:102D10007F74994204F500344FEAC0204FEAC22282
:102D200008BF904200F09C804FEA13650FF24016F6
:102D3000765D4FEA134506FB05F7C7F1807706FB82
:102D400007F74FEAD737A7FB03687642C8F5803804
:102D5000A7FB06CE38BFA8F1010807FB08E64FF035
:102D6000000EA6FB028CE6FB03CEDCF1000CCEF1DC
:102D7000004E38BFAEF1010EA6FB0C584FF0000715
:102D80004FF00005E6FB0E87A1FB08C6A0FB07CEAF
:102D900016EB0E0645F10005E1FB076515F1E04E67
:102DA0007EBFA4F580345FEA46066D4116F18007C8
:102DB00045F100054FEA17274FEA066647EA05671F
:102DC000A6F1DE46B6F1805F4FEA15251FD93846D9
:102DD00024F0010C05EBC471BCF1FE6F01EB0C118A
:102DE00002D8F0BCBDE8008124425CBF01F5801E22
:102DF0009EEAC47F02D4F0BCBDE80081244238D4EE
:102E0000F0BCA1F1C041BDE8004100F019BA4FEAA1
:102E1000D22242EA43524FEAD323A7FB02864FEA6B
:102E2000D02040EA415007FB03661EEA0E0F4FEA2E
:102E3000D12105FB026658BFA6EB0056B6EB005643
:102E40004FEA520E4EEAC37E18EB0E0E56EB530EAF
:102E5000BDD518EB02085E417F1C55F10005B6E7B1
:102E60004FF480154FF000074FF000064FF00008B8
:102E7000ADE7F0BC4FF0000001F1C04101F00041AE
:102E8000BDE8008111EA0C1F0CEA131500D00CE01C
:102E900013EA0C1F00F025804FF00000F0BC81EA1F
:102EA000030101F00041BDE80081F0BCBDE8004134
:102EB00081EA030100F0C4B9F0BCBDE8004170B57F
:102EC00000F070F9097EFC3E00F007B881EA0301CA
:102ED0004FF0000001F00041704781EA030100F06B
:102EE000AFB9F0BCBDE800414FF000002149704788
:102EF000FFFDFBF9F7F5F4F2F0EEEDEBE9E8E6E4BF
:102F0000E3E1E0DEDDDBDAD8D7D5D4D3D1D0CFCD45
:102F1000CCCBCAC8C7C6C5C4C2C1C0BFBEBDBCBB7E
:102F2000BAB9B8B7B6B5B4B3B2B1B0AFAEADACAB79
:102F3000AAA9A8A8A7A6A5A4A3A3A2A1A09F9F9E53
:102F40009D9C9C9B9A999998979796959594939305
:102F5000929191908F8F8E8E8D8C8C8B8B8A89899C
:102F6000888887878685858484838382828181801F
:102F70000000FF070000F87F4FEA41034FEA535378
:102F8000A3F58063D3F11E03C8BFD3F1210C0CDD80
:102F90004FF0004242EAC12242EA505232FA03FCA8
:102FA0008CEAE17CACEBE1707047102BC4BF0020D1
:102FB000704703F5787CBCF1FF3F04D06FF000420E
:102FC00082EA2100704770B500F0ECF84992248045
:102FD00000207047F2E7000051EA030C17D41CF5FB
:102FE000801F58BFBCF5801F00F10680994218BFB2
:102FF000704708BF9042704707D711F5801F58BF30
:1030000013F5801F19D499427047894270471CF507
:10301000801F08D5BCF5801FF7D58B4218BF7047BD
:1030200008BF824270474FF4001C1CEB410F38BFB1
:103030001CEB430F01D28B42704770B500F0B2F821
:10304000922449004FF000514FF08053FFF730BEFB
:10305000DFF848C170B51CEA111E1EBF1CEA13152B
:103060009EEA0C0F95EA0C0F00F06F8081EA0304D2
:1030700023EA4C134EEAD47E21EA4C1141F480112C
:1030800043F48013AE44A1FB024CA0FB0365AEF1F8
:103090007F7E361955EB0C05A1FB034C4CF1000368
:1030A000A0FB021C16EB0C06654153F1000309421C
:1030B00018BF46F0010613F4007F0BD14FEA03312D
:1030C0004FEA0530340341EA155140EA16506FF0DB
:1030D00003020AE04FEAC3214FEAC520F40241EAA5
:1030E000555140EA56506FF0020202EB2E4201EBBE
:1030F000025585EACE710AD05FEA440C18BF24F06D
:10310000004450F1000041F1000120EAD47040F287
:10311000FE7C624500D270BDA84214BF4FF08044CF
:103120004FF04044002E08BF0024BEF1806FA8BFBE
:10313000A1F1C041BDE8704080F282804FF00000F4
:1031400001F1C04101F0004170479EEA0C0F0CEA0A
:10315000131518BF95EA0C0F06D04FF0000081EA56
:10316000030E0EF0004170BD00F01CF88900013E16
:1031700000F007B800F009B84FEA430C5FEA5C5C66
:1031800008D081EA030100F05BB84FEA410C5FEA26
:103190005C5CF6D14FF00000014970470000FF076A
:1031A0000000F87F0EF1020E2EF0030E5EF8046BA5
:1031B000364205D4012A43EB030515F5001F12D84A
:1031C000012841EB010C1CF5001F0CD80ED14FEA71
:1031D000D17C15F5001F0CEB4C0C0CF1020C08BF58
:1031E0004CEBD37C04E04FF0080C01E04FEAD37CB9
:1031F0000CEB4C0526FA05F606F00706B6F1040CB2
:1032000006D20EEB860CBDE870404CF0010C604716
:10321000DFE80CF0090B02024FF000414FF0000014
:10322000A1F5002170BD19461046012851EB01049B
:1032300018BFD4F5001484BF002001F0004170BD18
:103240000808A0F500114FEA3101704753EA010C5C
:1032500017D41CF5801F58BFBCF5801F00F10680F5
:103260008B4218BF704708BF8242704707D713F5DB
:10327000801F58BF11F5801F19D48B4270479B42A5
:1032800070471CF5801F08D5BCF5801FF7D5994203
:1032900018BF704708BF904270474FF4001C1CEBEA
:1032A000430F38BF1CEB410F01D2994270470FB456
:1032B0000CBC03BCFFF7C1BE91EA030F10B581F04F
:1032C00000413FF555AC83F0004300F009B8000021
:1032D00010B591EA030F48BF83F000433FF548ACB7
:1032E000841A71EB030C07D212198CF0004C43EBDB
:1032F0000C03001B61EB0C01DFF8A4E14FEA115451
:10330000A4EB135C1EEA430F18BF9EEA445F00F073
:10331000B08023EA6E03524221EA0451C3EB6E03EC
:1033200038BF5B1EDCF1200E25D322FA0CFE10EB19
:103330000E0043FA0CFE41EB0E01CCF1200E03FA15
:103340000EFE10EB0E0051F10001CCF1200E29D43D
:1033500012FA0EF201EB0451BDE8104058BF70475D
:10336000401C1CBFB2F1004F704700280CBF491C25
:1033700020F00100704712EB020E43EB030218BF6E
:103380004FF0010E4EEA4202ACF1200CDCF11E0EB1
:1033900054D943FA0CFE10EB0E0051F1FF31CCF181
:1033A0001E0ED5D50EF1010E12FA0EFE404141EB74
:1033B000010101EB445C5FEA5C5C10D910EBDE704C
:1033C00001EB045138BFBEF1004FBDE8104018BFFB
:1033D000704700280CBF491C20F00100704730D214
:1033E0004FEAD42C11F5001124F400641BD0B1FA7B
:1033F00081F20B3AA41AA41ED2F12003914030FAB4
:1034000003F31943904001EBCC71002C01EB045104
:10341000BDE81040A8BF704701F1C0414FF0000067
:1034200001F000417047B0FA80F310FA03F100D1C7
:1034300010BDE41A173C4805C90AE4E701EB045142
:1034400010BD491001EB0451BDE810404FEA3000B7
:1034500002E04FF0000170474A0008BF0042F8D078
:10346000B2F5001F28BF704701F000414FF0000087
:1034700070479EEA445F07D011EA5E0FBDE8104036
:1034800004BF002100207047BDE8104070B5FFF771
:1034900089FE00BF40DFF63E83F0004110467047D2
:1034A0000000E0FF43004FEAD30C4FEA3C0C4340DE
:1034B0001FBF40070CF1605113F0FE4F70471CF026
:1034C000006F03D100200CF0004170470CF0004366
:1034D00043EA507010B540EACC0000F078FA00BF23
:1034E000000000924FEA0001FFF7AABE4FF0004132
:1034F0004FF00000A1F500217047000090EA010F95
:1035000048BF81F0004100F1E682421A3CBF801AB8
:1035100089184FEAD0524FF07F4C1CEA410FA2EBC2
:10352000D15318BF9CEA026F00F03B804FF0004C73
:103530004CEA00204CEA012121FA03FC10EB0C0CB0
:103540001ED202F1FF325FEA1C2040EBC25038BFAE
:1035500070471CF07F0F4FEA400C18BFBCF17F4F43
:1035600038BF7047C3F12003994008BF20F0010025
:10357000BCF17F4F38BF7047A0F1C04000F06DBA7A
:103580004FEA3C00000A40EBC25028BF1CF0FF0F7E
:103590004FEA400CE6D018BFBCF17F4F38BF7047F0
:1035A000EAE79CEA026F05D010EA5C0F08BF00F062
:1035B0000040704710B500F00AFA00BF64FBBE3E41
:1035C000401058BFC0F14040491058BFC1F14041C0
:1035D0008142EFF3008070474FF47F0C1CEAD01259
:1035E0001EBF1CEAD11392EA0C0F93EA0C0F00F0F5
:1035F000858090EA010F48BF42F4807240F4000CCD
:1036000041F400002CF07F4120F07F4000B5814262
:10361000A2EB03020FF2081CACEB504EC0F100000D
:103620009EF800E04FEA4E0E00FB0EFC38BF49004A
:103630004FEA2C1C02F5FA020CFB0EF34FEACE1EE9
:103640004FEA112C4FEAC1210EEB635E42EB22429E
:103650000EFB0CFC4FEA1C5300FB03114FEA112C2C
:103660004FEA01310EFB0CFC4FEADC4C00FB0C1165
:10367000C14228BF09184CEB03335DF804EB10EB93
:10368000410143EBC250B2F57C0F38BF704729D5DA
:1036900012F0F00F1CBF00F1C04000F00040704776
:1036A000008182838485868788898B8C8D8E8F911B
:1036B0009293959697999A9C9D9FA0A2A3A5A7A83F
:1036C000AAACAEB0B2B3B5B7B9BCBEC0C2C5C7C96B
:1036D000CCCED1D4D7D9DCDFE2E6E9ECF0F3F7FACF
:1036E000FE0000004FEA400C0CF1807CBCF17E4FE4
:1036F00028BF7047B0F1C04000F0AFB990EA010FA9
:103700000CEAD11348BF42F48072624538BF63456A
:1037100007D213F47F0F16D080EA010000F00040BA
:10372000704710B500F053F9097EFC3E00F005B873
:1037300080EA010000F00040704780EA010000F0DC
:10374000004000F08AB912F47F0F04BF02487047AE
:1037500080EA010000F081B90000C07F50EA010C4E
:1037600000F113801CF5000F58BFBCF5000F01D409
:103770008842704707D710F5000F58BF11F5000FAA
:1037800015D488427047894270471CF5000F04D554
:10379000BCF5000FF7D5814270474FF0807C1CEBE1
:1037A000400F38BF1CEB410F01D28142704710B56A
:1037B00000F00DF9922449004FF000504FF0805175
:1037C000FFF7FEBE41000B0ED3F19E0208D950F464
:1037D00000034FEA032323FA02F048BF4042704738
:1037E00010B500F0F4F800BF499224800020704723
:1037F0006FF0004282EA200070470000C10DD1F155
:103800009E0206DB4FEA002343F0004323FA02F056
:103810007047004207D54FEA4001B1F1FE4F02D296
:103820004FF00000704710B500F0D1F849922480A5
:10383000002070476FEA200070470000B0FA80F364
:1038400010FA03F2C3F19D030AD0D90501EB12204F
:10385000530638BF704700F1010008BF20F0010097
:103860007047000050EA010C00F113801CF5000FB6
:1038700058BFBCF5000F01D48842704707D710F538
:10388000000F58BF11F5000F15D4884270478942C8
:1038900070471CF5000F04D5BCF5000FF7D5814229
:1038A00070474FF0807C1CEB400F38BF1CEB410F82
:1038B00001D28142704710B500F089F89224490086
:1038C0004FF000504FF08051FFF77ABE4FF47F0C5D
:1038D0001CEAD0121EBF1CEAD11392EA0C0F93EA25
:1038E0000C0F00F0478090EA010F48BF42F480724D
:1038F0004FF0004C4CEA00204CEA012102EB03029D
:10390000A0FB0113A2F50002002918BF43F0010338
:103910005B0028BF4FEA330342EB22425FEA132CDD
:103920004CEBC2502EBFBCEB436FB2F57C0F70471F
:103930004FEA036CBCF1004F08BF20F00100B2F564
:103940007C0F38BF70470BD582F0FF0212F5803F25
:10395000C8BF704700F1C040D8BF00F000407047BA
:1039600000F5000C5FEA4C0C48BF7047B0F1C04056
:1039700000F073B890EA010F0CEAD11348BF42F48B
:103980008072624538BF634504D280EA010000F0CE
:103990000040704710B500F01AF800BF8900013EE2
:1039A00000F007B800F009B85FEA410C5FEA1C6C50
:1039B00008D080EA010000F050B85FEA400C5FEAEE
:1039C0001C6CF6D14FF00040A0F5800070470EF15E
:1039D000020E2EF0030E5EF8044B244204D44FEA8C
:1039E0004102B2F17F4F11D84FEA4003B3F17F4F4C
:1039F0000CD80ED14FEAD07CB2F17F4F0CEB4C0CBF
:103A00000CF1020C08BF4CEBD17C04E04FF0080C29
:103A100001E04FEAD17C0CEB4C0324FA03F404F0F0
:103A20000704B4F1040C06D20EEB840CBDE8104080
:103A30004CF0010C6047DFE80CF0070802024FF081
:103A40000040A0F5800010BD0846420018BFD2F12A
:103A5000807288BF00F0004010BDFF2141EAD050C5
:103A6000C005704751EA000C00F113801CF5000FEF
:103A700058BFBCF5000F01D48142704707D711F53C
:103A8000000F58BF10F5000F15D4814270478942CE
:103A900070471CF5000F04D5BCF5000FF7D5884220
:103AA00070474FF0807C1CEB410F38BF1CEB400F80
:103AB00001D28842704780EA010081EA000180EA71
:103AC0000100FFF7F8BE000090EA010F48BF81F047
:103AD00000413FF51AAD421A04D882F00042A0EB33
:103AE000020011444FEAD0524FF07F4C1CEA410FC4
:103AF000A2EBD15318BF9CEA026F4AD04FF0004CA2
:103B00004CEA00204CEA012121FA03FCB0EB0C0C3A
:103B10000FD412F0FE0F36D05FEA4C001DD5001214
:103B200040EBC25038BF70471CF03F0F18BF7047C2
:103B30000BE0A2F101025FEA1C2040EBC25038BF4B
:103B400070471CF07F0F18BF7047C3F120039940E6
:103B500014BF401E20F00100704780084FEA122376
:103B600008BF7047B0FA80FCA2EB0C02CCF1280C25
:103B700060FA0CF093EA122F04BF00EBC2507047BA
:103B80004FEAC3707047130A5FEADC1008BF704742
:103B9000F6E79CEA026F04D010EA5C0F08BF002031
:103BA000704710B5FFF713FF40DFF63E81F000408D
:103BB0007047FCF784BC000002400000000000A039
:103BC0000000000005400000000000C800000000E8
:103BD0000C4000000000409C000000001940000064
:103BE0000020BCBE0000000034400000BFC91B8E96
:103BF00000000004B5400000504BCFD06607E2CF74
:103C0000010000006C4100003E8251AADFEEA734A3
:103C100001000000D9420000DCB5A0E23A301F9755
:103C2000FFFFFFFFB4450000FD25A0C8E9A3C14F79
:103C3000FFFFFFFFFF3F00000000008000000000CA
:103C4000FF3F00000000008000000000883C0008EA
:103C5000000000209000000028010008183D000826
:103C600090000020F0060000440100081C00000045
:103C700043000000F8FFFFFF0C0000000E000000F2
:103C80000F0000002E0000000000000000000000F7
:103C90000000000000000000000000000000000024
:103CA0000000000000000000000000000000000014
:103CB0000000000000000000000000000000000004
:103CC00000000000000000000000000000000000F4
:103CD00000000000000000000000000000000000E4
:103CE00000000000000000000000803F0000000015
:103CF00000000000000000000000000000000000C4
:103D00000000000000000102030401020304060792
:083D1000080902040608000086
:04000005080000ED02
:00000001FF
